:020000040800F2
:10000000100600209D010008A7190008B918000873
:10001000A51900084B0700086D200008000000002B
:10002000000000000000000000000000AB19000804
:100030000908000800000000A9190008AD1900080F
:10004000B7010008B7010008B7010008B7010008B0
:10005000B7010008B7010008B7010008B7010008A0
:10006000B7010008B7010008B7010008B701000890
:100070004D070008B701000859070008B70100083C
:10008000B7010008B7010008B7010008B701000870
:10009000B7010008B7010008B7010008B701000860
:1000A000B7010008B7010008B7010008B701000850
:1000B000B7010008B7010008B7010008B701000840
:1000C000B7010008B7010008B7010008B701000830
:1000D000B7010008B7010008B7010008991F000820
:1000E000B7010008B7010008B7010008B701000810
:1000F000B7010008B7010008B7010008B701000800
:10010000B7010008B7010008B7010008B7010008EF
:10011000B7010008B7010008B7010008B7010008DF
:10012000B7010008B7010008B7010008B7010008CF
:10013000B7010008B7010008B7010008B7010008BF
:10014000B7010008B7010008B7010008B7010008AF
:10015000B7010008B7010008B7010008B70100089F
:10016000B7010008B7010008B7010008B70100088F
:10017000B7010008B7010008B7010008000000003F
:10018000B7010008B7010008DFF80CD000F05CFAF6
:1001900000480047B929000810060020064880479B
:1001A00006480047FEE7FEE7FEE7FEE7FEE7FEE75C
:1001B000FEE7FEE7FEE7FEE7351A000889010008C2
:1001C0002DE9F05F0546002092469B46884606468C
:1001D000814640241BE0284641464746224600F01F
:1001E0006AF853465A46C01A914110D31146184630
:1001F000224600F051F82D1A67EB01084F462246BF
:100200000120002100F048F817EB00094E41201EA4
:10021000A4F10104DFDC484631462A464346BDE8E6
:10022000F09FD2B201E000F8012B491EFBD27047CB
:100230000022F6E710B513460A4604461946FFF7B2
:10024000F0FF204610BD00F0004230F000400AD020
:10025000C10D01F56071C0F3160042EA0151C208F8
:1002600040071143704700200146704730B50B46E8
:10027000014600202022012409E021FA02F59D42D6
:1002800005D303FA02F5491B04FA02F52844151EAA
:10029000A2F10102F1DC30BD202A04DB203A00FA91
:1002A00002F1002070479140C2F1200320FA03F3CD
:1002B000194390407047202A04DB203A21FA02F0CB
:1002C0000021704721FA02F3D040C2F12002914090
:1002D0000843194670472DE9FE4F804681EA030026
:1002E000C00F0C46009021F0004123F00045B8EB10
:1002F0000200A94105D24046214690461C460B46C5
:10030000024623F00040104347D0270DC7F30A00F0
:10031000C3F30A510290401A019040286BDAC3F3EC
:10032000130040F4801B0098924620B10023D2EBCA
:10033000030A63EB0B0B01985946C0F1400250468B
:10034000FFF7AAFF06460D4650465946019A00F0AF
:100350008DF910EB08006141002487EA115284EA0C
:10036000E7731A4340D0009A62B3019A012A4FEA18
:10037000075215DC001B61EB02014FF0004202EA5C
:100380000752CDE90042001C41F5801132462B4650
:1003900000F08DF903B0BDE8F08F40462146F9E743
:1003A000001B61EB0201001C41F5801300185B414A
:1003B0002018A2F5001747EB030140EAD570B619E3
:1003C0006D4111E06D084FEA360645EAC0754FEA07
:1003D0000752001B61EB0201001C41F58011490826
:1003E0004FEA30000019514132462B4603B0BDE8B8
:1003F000F04F00F04DB90098012240000023D0EBEF
:10040000020263EBE073009821464FEAE074B8EB18
:10041000000061EB0401E9E783F000435BE781F052
:10042000004158E72DE9FE4F81EA030404F000443F
:1004300021F0004100944FF0000B23F0004350EAFC
:1004400001045ED052EA03045BD0C3F30A54C1F343
:100450000A552C44A4F2F3340194A0FB0254C1F3D6
:10046000130141F48011C3F3130343F4801301FB20
:10047000024400FB034E840A970A44EA815447EA87
:100480008357A4FB076802958D0A05FB07854FEA91
:10049000932C04FB0C542705029D4FEA065847EAAB
:1004A0001637B5EB08056EEB070C870E920E47EA80
:1004B000811742EA8312A7FB0201B6EB0B0164EB42
:1004C00000042B0D43EA0C335E1844EB1C50DA4653
:1004D0005146E7FB0201C5F313044FEA0B3343EA2D
:1004E00014534FEA0432019C43EA0603A4F10C04BE
:1004F0000294009CCDE900B400F0D9F803B0BDE847
:10050000F08F00200146F9E72DE9F04D81EA030460
:1005100004F0004B21F0004514464FF0000A23F090
:10052000004150EA050220D054EA01021DD0C5F373
:100530000A570246C5F31303C1F31300C1F30A5669
:1005400040F4801543F48013A7EB0608101BD64631
:1005500008F2FD3873EB050002D308F1010801E051
:1005600092185B41B8F1000F03DA00200146BDE8A4
:10057000F08D00204FF48011064684460EE0171BD4
:1005800073EB050705D3121B63EB050306434CEA27
:10059000010C49084FEA300092185B4150EA01070C
:1005A000EDD152EA030012D082EA040083EA050189
:1005B000084305D0101BAB4106D20122002306E000
:1005C00000224FF0004302E06FF0010253101AEBDB
:1005D00006004CEB085110EB0A0041EB0B01BDE8A3
:1005E000F04D00F055B8C1F30A52C1F3130140F2C7
:1005F000FF3341F480119A4202DA0020014670472D
:1006000040F233439A42A2F2334202DC5242FFF7F5
:1006100052BEFFF741BE000030B5041E71F1000468
:1006200004DB4FF00044404264EB0101141E73F1FF
:10063000000405DB1C464FF00043524263EB040309
:10064000994208BF904230BD064C074D06E0E06875
:1006500040F0010394E8070098471034AC42F6D309
:10066000FFF796FD3C2D00085C2D0008202A06DBD4
:10067000CB17203A41FA02F043EAE07306E041FA70
:1006800002F3D040C2F1200291400843194670475E
:1006900010B5141E73F1000408DA401C41F100018A
:1006A00092185B411A4301D120F0010010BD2DE9E1
:1006B000F04D92469B4611B1B1FA81F202E0B0FAD8
:1006C00080F220329046FFF7E7FD04460F4640EAED
:1006D0000A0041EA0B0153465A46084313D011461B
:1006E00053EA010019D0C8F140025046FFF7E3FD7C
:1006F00005460E46504659464246FFF7CDFD084393
:1007000005D0012004E020463946BDE8F08D0020E8
:10071000054346EAE0762C4337430A986305E40A2A
:10072000A0EB08000022FD0A44EA47540A3002D533
:1007300000200146E9E7010510196941DDE9084596
:1007400000196941BDE8F04DA2E7FEE7014800F05D
:10075000CDB8000038010020014800F0C7B8000003
:100760009801002001681823CAB2103AB2FBF3F2D4
:10077000054B6FF30901032A9B5CC36500D9091D72
:1007800081650846704700001C2D000810B5014621
:1007900000208B698A6A4FF0C07453B1B3F5005FD3
:1007A00015D072B1012A0CD0022A0AD0032A09D12D
:1007B00004E01AB1012A06D0022A03D1C96AC9018C
:1007C00000D5012010BDC96AA142FAD010BD002A8F
:1007D000F7D0012AF2D0022AF3D0032AF3D010BDB9
:1007E00030B50468256825F48025256004686360B9
:1007F0008368402B036803D099600068C26030BDF5
:100800009A600068C16030BD7047704710B558B13C
:10081000084C491E0BD310F8013B5340DBB234F8AF
:10082000133083EA1222F4E74FF6FF7010BD104632
:1008300010BD00001C2B00082DE9F0410446876D17
:1008400000F0A2FA064694F835000025022806D0EA
:100850008020606584F834500120BDE8F081206874
:10086000016821F0160101602068416921F08001D2
:100870004161206C08B9A06C20B12068016821F0AA
:10088000080101602068016821F0010101600BE0AE
:1008900000F07AFA801B052806D92020606504F84C
:1008A000345F03206070D8E720680068C007EFD18C
:1008B00094F85C103F208840B86004F8345F012051
:1008C00060700020C9E790F83510022903D080211C
:1008D000416501207047052180F8351000680168E6
:1008E00021F0010101600020704700002DE9F8436C
:1008F00004464FF00009CDF8009063484FF41651BC
:10090000A56D0068B0FBF1F72E6894F85C10082024
:1009100000FA01F131420FD021680A6852070BD565
:100920000A6822F004020A6094F85C108840A8600B
:10093000606D40F00100606594F85C104FF00108B4
:1009400008FA01F0304208D021684969090604D547
:10095000A860606D40F00200606594F85C100420AF
:100960008840304208D021680968890704D5A8600A
:10097000606D40F00400606594F85C1010208840C1
:10098000304218D021680968090714D5A86020688A
:100990000168490304D50068000308D5A16C07E08D
:1009A0000168C90503D4016821F008010160216CC8
:1009B00009B12046884794F85C10202088403042D6
:1009C00031D021680968C9062DD5A86094F8350092
:1009D00005282068016806D0490347D50068000350
:1009E0001DD4616C1CE021F0160101602068416992
:1009F00021F080014161206C08B9A06C20B1206811
:100A0000016821F00801016094F85C103F208840E3
:100A1000A86084F8349084F83580216D1FE0E16B84
:100A200009B120468847606D00282BD0606DC00753
:100A300014D0052084F835002068016821F00101F8
:100A400001600098401C0090B84203D820680068FC
:100A5000C007F6D184F8349084F83580E16C002921
:100A600010D001B02046BDE8F04308470168C90531
:100A7000D5D4016821F01001016084F8349084F825
:100A80003580CCE7BDE8F883180000202DE9F0415F
:100A9000044600F079F906465CB1002584F834502C
:100AA000022084F835002068016821F0010101600E
:100AB0000DE00120BDE8F08100F066F9801B0528FB
:100AC00005D920206065032084F83500F2E720680E
:100AD0000068C007F0D12268116820480140D4E9BD
:100AE00001031843D4E903363343184363691843B9
:100AF000A3691843E3691843236A18430843616AEA
:100B0000042903D1D4E90B1319430843106020686A
:100B10004069666A20F0070130460E430127042829
:100B20000CD1A06A0643E06A40B12046FFF72EFED2
:100B300020B14020606584F83570BAE720684661CE
:100B40002046FFF70FFE94F85C203F219140816022
:100B5000656584F835700020ACE700003F8010F038
:100B60002DE9F0410446866D90F8340000250128F7
:100B70000DD0012084F8340094F835700020012F46
:100B800007D084F8340002252846BDE8F081022011
:100B9000FBE7022784F8357060652046FFF720FEEA
:100BA00094F85C103F208840B0602068016841F0F4
:100BB000160101602068416941F080014161206CAB
:100BC00020B12068016841F00801016020680168D7
:100BD00041F001010160D7E72DE9F84FDFF87CB162
:100BE00000224FF001084FF0030A4FF00F090BF1FC
:100BF000040E00BF0B6808FA02F42340A3426ED132
:100C00004D68022D01D0122D0ED1D50800EB850CB8
:100C1000DCF820505607F70E09FA07F6B5430E69BF
:100C2000BE402E43CCF82060066855000F790AFAC2
:100C300005FC07F0030726EA0C06AF4037430760C0
:100C40004E68012E05D0022E03D0112E01D0122E97
:100C50000ED18668CF6826EA0C06AF40374387601E
:100C60004668A6430C79C4F30014944034434460AE
:100C7000C6688C6826EA0C06AC403443C4604C68F5
:100C8000E40065D5364C256845F480452560246828
:100C900022F0030504F480440094324C2E19D6F857
:100CA000084895072F0F09FA07F5AC432E4DA842C7
:100CB00001D1002524E02D4DA84201D101251FE0DE
:100CC0002B4DA84201D102251AE02A4DA84201D19C
:100CD000032515E0284DA84202D1042510E037E095
:100CE000264DA84201D105250AE0254DA84201D193
:100CF000062505E0234DA84201D1072500E008257F
:100D0000BD402543C6F80858DBF800405D464E68F4
:100D10009C43F60300D51C432C60DEF8004075466A
:100D20004E689C43B60300D51C432C600B4D083520
:100D30002C684E689C43F60200D51C432C60074D7E
:100D40000C352C684E689C43B60200D51C432C60C1
:100D5000521C102AFFF44EAFBDE8F88F003C014052
:100D600044380240003001400000024000040240CC
:100D700000080240000C0240001002400014024033
:100D800000180240001C02400148806870470000C3
:100D90000C0000200248816802781144816070478D
:100DA0000C0000200B4810B5016841F4007101608F
:100DB000016841F480610160016841F48071016063
:100DC000032000F06FF8002000F006F800F024F88F
:100DD000002010BD003C024070B50D4D04464FF49C
:100DE0007A712878B1FBF0F00A490968B1FBF0F09C
:100DF00000F0E0FA48B9102C07D200222146501E1C
:100E000000F030F800206C6070BD012070BD000063
:100E10000C000020180000200A4808B5016841F4C1
:100E200080410160006800F4804000900548001F88
:100E3000016841F080510160006800F0805000902E
:100E400008BD000044380240002809DB00F01F0202
:100E5000012191404009800000F1E020C0F800111C
:100E600070470000F0B40E4B1B680C46C3F302231E
:100E7000C3F10705042D00D90425191D072901D246
:100E8000002300E0DB1E012606FA05F1491E214081
:100E900099409E40761E16403143F0BC01F016B9D1
:100EA0000CED00E0064900F0070208684FF6FF036A
:100EB000184040EA0220034A1043086070470000CF
:100EC0000CED00E00000FA052DE9F0470E460500A4
:100ED00065D0DFF81481D8F80000F7B200F00F00F9
:100EE000B04207D288F80070D8F8000000F00F0078
:100EF000B04254D128683D4C810712D5400703D534
:100F0000206840F4E05020602878000703D520686E
:100F100040F4604020602068A96820F0F000084399
:100F200020602878C0072DD030496868083901282A
:100F300012D0022813D0032811D00968890700298C
:100F40002DDA216821F0030101432160FFF71CFF26
:100F5000814641F2883A0EE009688903EFE70968A3
:100F60008901ECE7FFF710FFA0EB0901514502D919
:100F70000320BDE8F0872068696800F00C00B0EB42
:100F8000810FEFD1D8F80010404601F00F01B142B7
:100F900007D90770006800F00F00B04201D00120AF
:100FA000E7E72878400705D52068E96820F4E05095
:100FB000084320602878000706D52068296920F4B6
:100FC000604040EAC100206000F036F82168084A1D
:100FD000C1F30311515CC840064908600020FFF7C7
:100FE000FBFE0020C5E70000003C0240083802403C
:100FF000242D0008180000200448054900680968ED
:10100000044AC1F38221515CC84070471800002097
:1010100008380240342D0008044805490068096872
:10102000044AC1F34231515CC840704718000020A7
:1010300008380240342D0008154810B5006810F03B
:101040000C02144813D04110042A0FD0082A0ED1E4
:101050000F4C241F2268236802F03F025B0207D571
:101060002068C0F38810A0FB010106E0084610BD0F
:101070002168C1F38811A1FB00010023FFF7A0F84C
:101080002168C1F30141491C4900B0FBF1F010BDDA
:10109000083802400024F4002DE9F84F050076D00E
:1010A0002878DFF8F8B2BE4CC00749D0DBF8001052
:1010B0005846C1F38101012908D00068C0F38100BE
:1010C00002280AD1201D0068400206D5206880034E
:1010D00036D568680028E2D032E06868B0F5803F15
:1010E00010D0B0F5A02F206810D020F48030206000
:1010F000206820F4802020606868A0B1FFF744FEDB
:1011000006460CE0206840F48030F4E740F480208C
:101110002060F7E7FFF738FE801B642873D820684B
:101120008003F7D50CE0FFF72FFE064605E000BF71
:10113000FFF72AFE801B6428F0D820688003F7D4CC
:101140002878DFF8608280074FF000093ED5DBF891
:101150000010584611F00C0F09D00068C0F3810050
:1011600002280BD18D48001F0068400206D4206879
:10117000800715D5E868012809D111E0E868B8B101
:101180000120C8F80000FFF7FFFD064605E002E178
:10119000FFF7FAFD801B0228C0D820688007F7D52A
:1011A0002068296920F0F80040EAC10020600DE0C5
:1011B000C8F80090FFF7E8FD064604E0FFF7E4FDFD
:1011C000801B02281FD820688007F7D428780007E2
:1011D00022D5724E744869696C3671B10121016083
:1011E000FFF7D2FD074604E0FFF7CEFDC01B022843
:1011F00009D830688007F7D50EE0C0F80090FFF7F7
:10120000C3FD074605E083E0FFF7BEFDC01B0228D3
:101210007ED830688007F7D42878400768D5DFF893
:101220007CA100270AF1380ADAF80000C0000BD4CC
:10123000DAF8001041F08051CAF80010DAF8000026
:10124000012700F080500090584E3068C00510D43F
:10125000306840F480703060FFF796FD009005E044
:10126000FFF792FD0099401A022851D83068C00556
:10127000F6D54A4EA868683601280FD00528306890
:1012800010D020F001003060306820F004003060A1
:10129000A868B8B1FFF778FD00900FE0306840F023
:1012A0000100F4E740F004003060F7E7FFF76CFD61
:1012B0000099411A41F28830814264D83068800731
:1012C000F4D50EE0FFF760FD009007E0FFF75CFD4E
:1012D0000099411A41F28830814254D83068800721
:1012E000F4D42FB1DAF8001021F08051CAF80010C0
:1012F000A869C0B3DBF80010C1F3810102294AD00C
:101300000228484607D0C8F86000FFF73DFD00E01E
:1013100039E005463AE04746C8F86000FFF734FD7B
:10132000064604E0FFF730FD801B02282BD820681A
:101330008001F7D4D5E907010843A96A1C4A490886
:1013400002EB01416A6A41EA8211084395F82C10C8
:1013500040EA01611148001F016001203866FFF773
:1013600013FD054605E014E0FFF70EFD401B0228C3
:1013700009D820688001F7D50BE000BFFFF704FD16
:10138000401B022802D90320BDE8F88F20688001A5
:10139000F4D40020F8E70120F6E700000838024006
:1013A0000038024000004742800E47420070004073
:1013B0000000FFFF10B5401EB0F1807F01D3012077
:1013C00010BD4FF0E02460610F21601700F07EFE39
:1013D0000020A06107202061002010BD10B5044648
:1013E0000068416994F83920C1F3C011212A0BD15A
:1013F00051B1416921F080014161206B08B1FFF7D3
:101400001BFA204600F0BAFB2068416994F83A20A4
:10141000C1F38011222A0BD151B1416921F0400161
:101420004161606B08B1FFF707FA204600F098FBB6
:10143000002010BD7047000070B5026804461068B7
:10144000D168536910F00F0F51D003F0010501F47A
:10145000907635435DD0C20705D0CA0503D5E26B4F
:1014600042F00102E263420705D5DA0703D0E26BDE
:1014700042F00202E263820705D5DA0703D0E26B8D
:1014800042F00402E263020705D5DA0703D0E26BFB
:1014900042F00802E263E26B002A34D0800604D5F1
:1014A000880602D5204600F072FB20684069E16B97
:1014B000C0F3801001F008010143204624D000F061
:1014C0004FFB2068416949061AD5416921F0400166
:1014D0004161606BA0B11B490165606BFFF7F3F9D7
:1014E000002810D0606B016DBDE87040084783068E
:1014F0000FD58B060DD52046BDE8704000F047BBE8
:101500002046FFF797FF70BDFFF794FF0020E063D0
:1015100070BD030606D50B0604D52046BDE8704015
:1015200000F0D6BC4006F3D54806F1D5D168204678
:1015300021F04001D160202184F8391000F0BAF97F
:1015400070BD0000891A000870B5040004D094F83A
:101550003900002510B106E0012070BD84F8385034
:10156000204600F023F8242084F839002068C16860
:1015700021F40051C160204600F054FB206801694D
:1015800021F4904101612068416921F02A01416103
:101590002068C16841F40051C160E563202084F8EF
:1015A000390084F83A00002070BD00002DE9F043B6
:1015B00087B0064614216846FEF73AFEDFF800C100
:1015C0003168404802220123032507270024614592
:1015D0001BD13C4914310C6844F010040C600968BC
:1015E00001F010010591016841F0010101600068FE
:1015F000694600F00100059068028DE8AD003248B0
:10160000FFF7EAFA07B0BDE8F083DFF8C0C0614534
:10161000F8D12C491031D1F800C04CF4802CC1F81D
:1016200000C0096801F480210591016841F00201C0
:1016300001600068694600F0020005904FF44060C8
:101640008DE8AD002248FFF7C7FA234D21484FF03F
:1016500000672860C5E901744FF48069C5E9034952
:101660006C614FF48038AC61C5E9074828466C626C
:10167000FFF70CFA08B1FFF7C8F87563AE63164DB3
:10168000144860353030E5E802074020A5E8110233
:10169000114845F814496030AC61C5E907486C62EF
:1016A000FFF7F4F908B1FFF7B0F8356300221146EF
:1016B0002720AE63FFF7D6FB2720FFF7C5FBA1E786
:1016C0000010014030380240000002400048004055
:1016D000000402402860024038010020F8B50446AA
:1016E00090F83A0020283CD1C1B3BAB394F838003E
:1016F000012836D0012084F83800A162A285002597
:10170000E563222084F83A00636B1748D863636B63
:1017100016481864636B1648D864606B13460565F9
:101720000846666B216802463046091DFFF718FA25
:10173000206801684168009184F83850C16841F41C
:101740008071C1602068416941F0010141612068F8
:10175000416941F0400141610020F8BDFFE70120EF
:10176000FBE70220F9E70000E31A00081F1B00084E
:10177000991A0008704770472DE9F843044690F81D
:1017800039001F4616460D46202850D1A5B19EB1FE
:1017900094F8380001284AD0012084F838004FF02E
:1017A0000008C4F83C80212084F83900FFF7ECFAE7
:1017B000A6848146E68426E00120BDE8F883E08C1B
:1017C000401EE084A0684B46B0F5805F4FF00002F9
:1017D0004FF080012046009703D000F0AAFBE8B943
:1017E0000DE000F0A6FBC8B928882168C0F3080006
:1017F0004860206908B16D1C05E0AD1C03E021685C
:1018000015F8010B4860E08C0028D8D14B46002227
:1018100040212046009700F08CFB08B10320CCE764
:10182000202084F8390084F838800020C5E70220A1
:10183000C3E7000070B5044690F83900202830D185
:1018400069B362B394F8380001282AD0012084F8E3
:1018500038002162A284E2840025E563212084F817
:101860003900236B1048D863236B10481864236B2E
:101870000F48D864206B134605652668206B321D1F
:10188000FFF76EF921686FF04000086084F8385067
:101890002068416941F080014161002070BD012054
:1018A00070BD022070BD0000291B0008571B0008F6
:1018B000991A000870477047FEE700000D4808B508
:1018C000016841F4001101600068002200F400107A
:1018D000009011460C20FFF7C5FA0C20FFF7B4FA70
:1018E000002211460E20FFF7BDFABDE808400E2089
:1018F000FFF7AABA303802400D4808B5016841F038
:1019000080010160016801F080010091016841F0EF
:1019100002010160016801F002010091016841F0DB
:1019200001010160006800F00100009008BD0000A6
:10193000303802400C4810B50A4901604FF4E131DB
:101940004160002181600C22C160C0E90412816104
:10195000C161FFF7F9FD002803D0BDE81040FEF794
:1019600054BF10BD00100140B80000200C4810B555
:101970000A4901604FF4E1314160002181600C228D
:10198000C160C0E904128161C161FFF7DDFD00287B
:1019900003D0BDE81040FEF738BF10BD004800403E
:1019A000F8000020FEE7704770477047FFF7F2B974
:1019B00030B593B030216846FEF73AFC14210CA8EC
:1019C000FEF736FC19480025016841F0805101609E
:1019D000006800F0805011901548016841F4804182
:1019E00001600068022400F4804011900120009002
:1019F000000401908001CDE9064008AA0420A82136
:101A000082E813000B906846FFF746FB0CA90F20F5
:101A100081E831004FF4A0500F90E00210900521B2
:101A20000CA8FFF751FA13B030BD00004038024057
:101A3000007000401048016841F4700101600F48D7
:101A4000016841F0010101600C4A00210832116077
:101A500002680B4B1A400260031D0A4A1A600268B2
:101A600022F48022026005480C30016002495806C9
:101A7000803908607047000088ED00E000380240BF
:101A8000FFFFF6FE1030002410B5806B0021C185E9
:101A9000C184FFF7CFFC10BD70B5846B206840692E
:101AA00094F83910C0F3C0100025212904D118B1D1
:101AB000E584204600F062F82068406994F83A1006
:101AC000C0F38010222904D118B1E585204600F02A
:101AD00047F8E06B40F01000E0632046FFF7AAFCF7
:101AE00070BD10B50146806B09680968C90513D43B
:101AF0000021C1850168CA6822F48072CA60016849
:101B00004A6922F001024A6101684A6922F04002F2
:101B10004A61202180F83A10FFF72CFE10BD10B565
:101B2000806BFFF728FE10BD10B50146806B096879
:101B30000968C9050CD40021C18401684A6922F0F2
:101B400080024A610068C16841F04001C16010BD77
:101B5000FFF7B0FE10BD10B5806BFFF7ACFE10BDF7
:101B60000168CA6822F49072CA6001684A6922F06A
:101B700001024A61202180F83A1070470168CA6862
:101B800022F0C002CA60202180F83910704710B5D9
:101B900090F83A10222901D0022010BD8168B1F5D9
:101BA000805F11D00169002901681FD0496801F0E8
:101BB0007F03816A4A1C82620B70C18D491E090431
:101BC000090CC18518D02BE00269816A002A0268DD
:101BD000526805D0D2B20A80816A491C8162ECE762
:101BE000C2F308020A80816A891CF7E74A68816AA1
:101BF0004B1C83620A70E0E70168CA6822F0200289
:101C0000CA600168CA6822F48072CA6001684A69C1
:101C100022F001024A61202180F83A10FFF7AAFD64
:101C2000002010BD2DE9F041044600680169E2681A
:101C300021F44051114301612169A068E269084320
:101C40006169114322680843D16849F20C639943E2
:101C50000143D16020684169A26921F440711143B8
:101C60004161E2696425B2F5004F974897492268BF
:101C70004FF032083FD08A4201D082427CD1FFF738
:101C8000CBF900EBC00101EB001061688900B0FBEB
:101C9000F1F6FFF7C1F900EBC00101EB001061683C
:101CA0008900B0FBF1F0B0FBF5F06FF0180148438C
:101CB00006EB800108EB0110B0FBF5F000F0F00638
:101CC000FFF7AAF900EBC00101EB00106168890081
:101CD000B0FBF1F0B0FBF5F006EB0016FFF79CF956
:101CE00000EBC00101EB001061688900B0FBF1F767
:101CF000FFF792F9D2E08A4201D082423DD1FFF74C
:101D00008BF900EBC00101EB001061684900B0FBEA
:101D1000F1F0B0FBF5F00601FFF77EF900EBC00132
:101D200001EB001061684900B0FBF1F7FFF774F9AF
:101D300000EBC00101EB001061684900B0FBF1F05D
:101D4000B0FBF5F06FF01801484307EB800108EB9A
:101D5000C100B0FBF5F000F0F80006EB4006FFF71D
:101D60005BF900EBC00101EB001061684900B0FBBA
:101D7000F1F7FFF751F93CE055E0FFF73DF900EBD3
:101D8000C00101EB001061684900B0FBF1F0B0FB4D
:101D9000F5F00601FFF730F900EBC00101EB001090
:101DA00061684900B0FBF1F7FFF726F900EBC001CD
:101DB00001EB001061684900B0FBF1F0B0FBF5F0F9
:101DC0006FF01801484307EB800108EBC100B0FB3E
:101DD000F5F000F0F80006EB4006FFF70DF900EB18
:101DE000C00101EB001061684900B0FBF1F7FFF79B
:101DF00003F900EBC00101EB001061684900B0FB82
:101E0000F1F0B0FBF5F06FF01801484307EB8001EB
:101E100008EBC100B0FBF5F000F00700216830448A
:101E20008860BDE8F081FFF7E7F800EBC00101EB47
:101E3000001061688900B0FBF1F6FFF7DDF800EBF8
:101E4000C00101EB001061688900B0FBF1F0B0FB4C
:101E5000F5F06FF01801484306EB800108EB011024
:101E6000B0FBF5F000F0F006FFF7C6F800EBC0019C
:101E700001EB001061688900B0FBF1F0B0FBF5F0F8
:101E800006EB0016FFF7B8F800EBC00101EB0010FD
:101E900061688900B0FBF1F7FFF7AEF800EBC00115
:101EA00001EB001061688900B0FBF1F0B0FBF5F0C8
:101EB0006FF01801484307EB800108EB0110B0FBFD
:101EC000F5F000F00F00A9E70014014000100140F8
:101ED00090F83910212901D0022070478168B1F5AE
:101EE000805F016A0BD04A1C026202680978516067
:101EF000C18C491E0904090CC1840ED017E0098861
:101F00000268C1F30801516001690029016A02D029
:101F1000491C0162ECE7891CFBE70168CA6822F0F2
:101F20008002CA600068C16841F04001C1600020C1
:101F300070472DE9F041984617460E460446069D27
:101F40001DE0681C1BD02DB1FEF71EFFA0EB0800A2
:101F5000A84214D92068C16821F4D071C1602068FA
:101F6000416921F001014161202084F8390084F8A1
:101F70003A00002084F838000320BDE8F081206892
:101F8000006836EA000004D00020B842D9D0002012
:101F9000F3E70120F9E7000038B52548FFF74CFAD0
:101FA000234800680168C1F3001100293ED0016890
:101FB00041680091016840681D48FFF70FFA1D480D
:101FC00000684568602D2AD11B4C6079042819D11E
:101FD0001D21204600F04CF8A0B11848A17CC1702A
:101FE000617C8170217C4170E17B01701449006843
:101FF0008860FEF728F941EC100B12A053EC102B6F
:1020000000F054F894F82200082808D10A48192151
:102010001D3000F02DF810B10EA000F047F8114966
:10202000C5F19600088010490120087038BD0000F5
:10203000F8000020380100202000002004000020CB
:10204000F8010020CAB5CAB1B9A6C2CACAFDBEDD30
:10205000256C6600BBFAC6F7C8CBCEBBD6C3D0C5CD
:10206000CFA200000200002000000020FEE70000D8
:1020700030B50C46050014D0022C12D90A48A11E16
:1020800002882846FEF7C2FB2919C2B211F8023CA9
:102090009A4206D111F8011CB1EB102F01D1012099
:1020A00030BD002030BD0000080000200FB4054BFB
:1020B00010B503A9044A029800F0DAF810BC5DF8E4
:1020C00014FB0000A12900081C0000200907090ECC
:1020D000002804DB00F1E02080F80014704700F0D5
:1020E0000F0000F1E02080F8141D704702E008C8DE
:1020F000121F08C1002AFAD170477047002001E082
:1021000001C1121F002AFBD1704700002DE9FF5FBB
:10211000DDE90220010DDDF838B0024318D044F6A5
:102120001050A1F2FF3141430D140F98012820D027
:10213000A5EB0B00401C5FEA000A4FF00004474E7D
:10214000DFF81C91A046504616D5CAF1000728E0DA
:102150000F98012443A2012808D0002100980F9B6A
:10216000C0E90021C0E90243BDE8FF9F6FEA0B010F
:10217000F4E7CBF10000DEE7074612E0F80707D0EE
:102180002246334640464946FEF74CF9804689468A
:102190002246334610461946FEF744F904460E46D9
:1021A0007F10002FEAD1DDE90201BAF1000F4246AB
:1021B0004B4602DAFEF736F901E0FEF7A5F90446D0
:1021C0000E460022284BFEF727FA03D84FF0FF30C7
:1021D000014607E00022254B20463146FEF77BF8FA
:1021E000FEF701FA102409E0002C0ADB0A22002382
:1021F000FDF7E6FF019B30321A55641E50EA0102DA
:10220000F2D1641C019AC4F1110314440F9A012AFB
:1022100003D0012208430DD10AE0084304D0002076
:102220004FF0110B0F9080E7A3EB0B056D1E0DE037
:102230005B4504DD4FF0000205F1010504E003DA1F
:102240004FF00002A5F10105002AECD000980F998B
:10225000C0E90231C0E9004586E7000000002440E3
:102260000000F03F300000000000F0430000E03FBD
:102270002DE9FF4F95B09B468946064600250FE2A3
:10228000252877D100242746F84A0121059400E04B
:10229000044316F8013F203B01FA03F01042F7D146
:1022A00030782A2811D06FF02F033078A0F1300257
:1022B000092A16D8059A44F0020402EB820203EBC5
:1022C00042021044761C0590EFE759F8042B059262
:1022D000002A03DA504244F40054059044F002040A
:1022E000761C30782E2816D116F8010F44F004041D
:1022F0002A280DD06FF02F023078A0F13003092B7F
:1023000009D807EB870302EB4303C718761CF3E7F2
:1023100059F8047B761C30786C280FD006DC4C28EA
:1023200017D068280DD06A2814D104E0742810D082
:102330007A280FD10DE044F400140AE044F480142C
:1023400001E044F440147278824202D104F5801412
:10235000761C761C307866280BD013DC582877D092
:1023600009DC002875D04528F6D04628F4D0472847
:102370001AD19DE118E0632835D0642879D065280A
:1023800012D195E1702873D008DC6728F1D0692854
:102390006FD06E280DD06F2806D1B5E073282CD0F1
:1023A000752875D0782874D05A46179990476D1CB7
:1023B00075E1C4F30250022809D003280DD0D9F8E2
:1023C000001004280DD00D6009F1040967E1D9F867
:1023D0000010EA17C1E90052F6E7D9F800100D80A5
:1023E000F2E70D70F0E719F8041B8DF800100020DB
:1023F0008DF80100EA46012003E059F804AB4FF0E4
:10240000FF3061074FF0000102D40DE008F1010137
:102410008846B9420FDA8045F8DB1AF8081000291F
:10242000F4D108E008F1010188468142FADB1AF88C
:1024300008100029F6D105985B46A0EB0807214655
:102440003846179A00F094FA284400EB080507E094
:102450004DE029E10DE01AF8010B5A461799904713
:10246000B8F10108F7D25B4621463846179A13E1C6
:1024700042E00A220092C4F302524FF0000A022AFC
:1024800008D059F804CB032A4FEAEC710AD00DE0CA
:1024900029E02AE009F1070121F00702F2E802C170
:1024A000914609E00FFA8CFC4FEAEC71042A03D143
:1024B0004FFA8CFC4FEAEC71002907DA0A4600213A
:1024C000DCF1000C61EB02012D2202E0220504D5B3
:1024D0002B228DF80420012203E0E20701D0202204
:1024E000F7E7904659E00A2102E010220DE01021A2
:1024F0004FF0000A00910BE010224FF0000A44F068
:1025000004040827009203E008224FF0000A00921A
:10251000C4F30252022A05D059F804CB0021032A41
:1025200008D009E009F1070121F00702F2E802C131
:10253000914605E01FFA8CFC042A01D10CF0FF0C37
:102540004FF00008220728D5702806D0009B83F0A2
:10255000100353EA0A0305D00EE040228DF8042050
:10256000012208E05CEA010206D030228DF8042046
:102570008DF8050002229046009B83F0080353EA81
:102580000A030AD15CEA010201D1620705D53022B3
:102590008DF804204FF001087F1E582804D034A085
:1025A00003900EA802900DE036A0F9E7534660466E
:1025B000009AFDF705FE84460398825C0298401E4F
:1025C000029002705CEA0100F0D1029806A9081A94
:1025D00000F1200A600702D524F4803400E00127CE
:1025E000574502DDA7EB0A0000E0002000EB0A01DE
:1025F000009005984144401A0590E00306D45B46DC
:102600002146179A059800F0B3F90544002706E023
:1026100001A85A46C05D179990476D1C7F1C47451D
:10262000F6DBE0030CD55B462146179A059800F0CF
:102630009FF9054404E030205A46179990476D1CD5
:102640000099481E00900029F5DC08E002980299E4
:102650005A460078491C0291179990476D1CBAF1AF
:102660000001AAF1010AF1DC65E10000092801007E
:1026700030313233343536373839616263646566F8
:1026800000000000303132333435363738394142BA
:10269000434445460000000000F058F90544761C0C
:1026A000307800287FF4ECAD19B02846BDE8F08FF3
:1026B000620700D4062709F1070222F0070CFCE8A4
:1026C0000223E14603F000485FEA080C02D00FF253
:1026D000702C0DE05FEA045C02D50FF2682C07E075
:1026E0005FEAC47C02D00FF2602C01E0AFF2700C04
:1026F0004FF0FF3823F00043CDF850C065280CD0D0
:1027000006DC452809D046281DD047283DD13DE0AC
:10271000662818D067287ED138E00021112F01DB10
:10272000112000E0781CCDE9000106A90EA8FFF7F2
:10273000EDFCDDE90F010E9A03910021009207F1F3
:10274000010A04914DE04FF000400097CDE90110DF
:1027500006A90EA8FFF7DAFCDDE90F0203920E9B33
:1027600011990022DDF80CA00093049211B9791C94
:1027700000EB010AB7EB0A0004D4C0F1FF3007F107
:10278000010A0490AAEB0700019044E0012F00DA4F
:1027900001270021112F01DD112000E03846CDE98D
:1027A000000106A90EA8FFF7B1FCDDE90F010E9AA2
:1027B0000391002104910092BA4621070CD4039999
:1027C000514500DA8A46BAF1010F05DD009AAAF1F7
:1027D0000101515C302908D0B84202DA10F1040F2F
:1027E00006DA0121CDE9011015E0AAF10101E9E7BE
:1027F000002805DC049901440491AAEB000102E0E1
:10280000411C514500DD8A460499401A401C019044
:102810004FF000400290200704D40198504501DB9E
:10282000CDF8048000208DF84F0002980DF14F077D
:10283000B0F1004F25D02B200E9002984FF00208E7
:1028400000280CDA404202902D200E9007E00A2169
:102850000298FDF70BFD3031029007F8011DB8F129
:102860000001A8F10108F2DC02980028EFD1791EDE
:102870000E980870307800F0200040F0450007F80E
:10288000020D12A8C01B00F107081498007800B1CF
:10289000012000EB0A01019801EBE0710598414429
:1028A000401A401E0590E00306D45B462146179A65
:1028B000059800F05DF805441498007818B15A4660
:1028C000179990476D1CE00324D55B462146179A63
:1028D000059800F04DF805441CE00498002807DB3B
:1028E000DDE90301884203DD0098405C179901E0AF
:1028F000179930205A469047049805F10105401C6D
:1029000004900198401E019004D12E205A46179938
:1029100090476D1CBAF10001AAF1010ADDDC05E067
:1029200017F8010B5A46179990476D1CB8F1000132
:10293000A8F10108F4DC5B462146179A0598ABE63E
:102940002D0000002B000000200000002DE9F041C8
:10295000044600251E461746880404D405E039467F
:102960002020B0476D1C641EF9D52846BDE8F081D3
:102970002DE9F041044600251E469046C80301D5C6
:10298000302700E02027880404D505E0414638467A
:10299000B0476D1C641EF9D52846BDE8F0810000E3
:1029A00013B50A23012269460248FEF7E5FE0098A6
:1029B0001CBD0000B8000020FEF7F4F9FEF7F8FF98
:1029C000FEF79AFFFEF77AFFFEF7D0FFFEF7B2FFA1
:1029D0000E480068C16841F01001C16096220C49A0
:1029E0000A48FEF77BFE0B4E0B4C00253078012881
:1029F000FCD1228806490548FEF71CFF258035706A
:102A0000962203490148FEF769FEEFE7F80000202F
:102A1000200000200000002002000020005EBCE238
:102A2000613FDD83C29C7E20A3FD1F419DC3217FAA
:102A3000FCA2401E5F01E3BD3E6082DC237D9FC19E
:102A4000421CFEA0E1BF5D0380DE3C62BEE0025C92
:102A5000DF81633D7C22C09E1D43A1FF4618FAA47E
:102A600027799BC584DA3866E5BB5907DB8567396A
:102A7000BAE406581947A5FB7826C49A653BD9875E
:102A8000045AB8E6A7F91B45C6987A24F8A6441A52
:102A900099C7257B3A6486D85B05E7B98CD2306E3E
:102AA000EDB3510F4E10F2AC2F7193CD114FADF32A
:102AB000702ECC92D38D6F31B2EC0E50AFF1134D1E
:102AC000CE90722C6D33D18F0C52B0EE326C8ED012
:102AD000530DEFB1F0AE4C1291CF2D73CA947628FE
:102AE000ABF517490856B4EA6937D58B5709EBB5EA
:102AF00036688AD495CB2977F4AA4816E9B7550BDE
:102B000088D6346A2B7597C94A14F6A8742AC896D1
:102B1000154BA9F7B6E80A54D7896B35000089111F
:102B200012239B322446AD573665BF74488CC19D35
:102B30005AAFD3BE6CCAE5DB7EE9F7F88110080115
:102B400093331A22A5562C47B7753E64C99C408D15
:102B5000DBBF52AEEDDA64CBFFF976E802218B30B1
:102B6000100299132667AF763444BD554AADC3BCF5
:102B7000588ED19F6EEBE7FA7CC8F5D983310A20D5
:102B800091121803A7772E66B5543C45CBBD42ACD5
:102B9000D99E508FEFFB66EAFDD874C904428D536D
:102BA00016619F702004A9153227BB364CCEC5DFB5
:102BB0005EEDD7FC6888E1997AABF3BA85520C4395
:102BC00097711E60A1142805B3373A26CDDE44CF95
:102BD000DFFD56ECE9986089FBBB72AA06638F7231
:102BE00014409D512225AB343006B9174EEFC7FE75
:102BF0005CCCD5DD6AA9E3B8788AF19B87730E6255
:102C000095501C41A3352A24B1163807CFFF46EE54
:102C1000DDDC54CDEBB962A8F99A708B08848195FC
:102C20001AA793B62CC2A5D33EE1B7F04008C91944
:102C3000522BDB3A644EED5F766DFF7C8994008504
:102C40009BB712A6ADD224C3BFF136E0C118480924
:102C5000D33B5A2AE55E6C4FF77D7E6C0AA583B4A0
:102C6000188691972EE3A7F23CC0B5D14229CB3804
:102C7000500AD91B666FEF7E744CFD5D8BB502A4C4
:102C800099961087AFF326E2BDD034C1C3394A28E4
:102C9000D11A580BE77F6E6EF55C7C4D0CC685D75C
:102CA0001EE597F42880A1913AA3B3B2444ACD5BC4
:102CB0005669DF78600CE91D722FFB3E8DD604C784
:102CC0009FF516E4A9902081BBB332A2C55A4C4BA4
:102CD000D7795E68E11C680DF33F7A2E0EE787F620
:102CE0001CC495D52AA1A3B03882B193466BCF7A84
:102CF0005448DD59622DEB3C700EF91F8FF706E644
:102D00009DD414C5ABB122A0B9923083C77B4E6A63
:102D1000D5585C49E33D6A2CF11E780F0006101669
:102D2000000610160000000000000000010203046D
:102D30000607080900000000010203045C2D0008DA
:102D40000000002020000000EC2000087C2D00087E
:102D500020000020F0050000FC200008000000001A
:102D600000000000FFFF0000010000001000000054
:0C2D7000000000000024F400000000003F
:040000050800018965
:00000001FF
